{
  "contractName": "demo",
  "abi": [
    {
      "inputs": [],
      "name": "x",
      "outputs": [
        {
          "internalType": "uint256",
          "name": "",
          "type": "uint256"
        }
      ],
      "stateMutability": "view",
      "type": "function"
    },
    {
      "inputs": [],
      "name": "func",
      "outputs": [],
      "stateMutability": "nonpayable",
      "type": "function"
    }
  ],
  "bytecode": "0x608060405234801561001057600080fd5b5061016f806100206000396000f3fe608060405234801561001057600080fd5b50600436106100365760003560e01c80630c55699c1461003b578063bfa814b514610059575b600080fd5b610043610063565b6040516100509190610099565b60405180910390f35b610061610069565b005b60005481565b600260005461007891906100e3565b600081905550565b6000819050919050565b61009381610080565b82525050565b60006020820190506100ae600083018461008a565b92915050565b7f4e487b7100000000000000000000000000000000000000000000000000000000600052601160045260246000fd5b60006100ee82610080565b91506100f983610080565b9250827fffffffffffffffffffffffffffffffffffffffffffffffffffffffffffffffff0382111561012e5761012d6100b4565b5b82820190509291505056fea26469706673582212209b6389bd8c1ced39563594cf804acd43eeaec519dc99dcf31fdb82ce9080607a64736f6c634300080b0033",
  "immutableReferences": {},
  "source": "// SPDX-License-Identifier: UNLICENSED\r\n\r\npragma solidity >= 0.7.0 <0.9.0;\r\n\r\ncontract demo{\r\n    uint public x;\r\n\r\n    function func() public {\r\n        x = x+2;\r\n    }\r\n}",
  "sourcePath": "D:\\Programing\\BlockChain\\truffle_codes\\web\\contracts\\demo.sol",
  "compiler": {
    "name": "solc",
    "version": "0.8.11+commit.d7f03943.Emscripten.clang"
  },
  "schemaVersion": "3.4.4",
  "updatedAt": "2022-02-08T16:54:40.171Z",
  "devdoc": {
    "kind": "dev",
    "methods": {},
    "version": 1
  },
  "userdoc": {
    "kind": "user",
    "methods": {},
    "version": 1
  }
}